:100000000C946D000C9495000C9495000C94950044
:100010000C9495000C9495000C9495000C9495000C
:100020000C9495000C9495000C9495000C949500FC
:100030000C9495000C9495000C9495000C949500EC
:100040000C946A070C9495000C94DA070C94B4078E
:100050000C9495000C9495000C9495000C949500CC
:100060000C940C080C94950031343A31373A303402
:10007000004E6F76203133203230323500000000E0
:1000800000240027002A0000000000250028002B83
:1000900000000000002300260029000404040404DA
:1000A0000404040202020202020303030303030125
:1000B00002040810204080010204081020010204FC
:1000C00008102000000008000201000003040700DF
:1000D0000000000000000000380911241FBECFEF0F
:1000E000D8E0DEBFCDBF23E0A2EDB1E001C01D929C
:1000F000AD36B207E1F711E0A0E0B1E0E8E9F0E2E7
:1001000002C005900D92A23DB107D9F710E0CDE6EF
:10011000D0E004C02197FE010E940B0FCC36D1071E
:10012000C9F70E9481090C944A100C9400000895AC
:100130000895833081F028F4813099F08230A9F05D
:1001400008958730A9F08830C9F08430B1F48091E7
:1001500080008F7D03C0809180008F778093800026
:10016000089584B58F7784BD089584B58F7DFBCFC6
:100170008091B0008F778093B00008958091B00097
:100180008F7DF9CFCF93DF93282F30E0F901ED5326
:10019000FF4F8491F901E155FF4FD491F901E556E4
:1001A000FF4FC491CC23A1F081110E949900EC2F44
:1001B000F0E0EE0FFF1FEF56FF4FA591B491EC91C9
:1001C000ED2381E090E009F480E0DF91CF91089584
:1001D00080E090E0FACF1F93CF93DF93282F30E099
:1001E000F901ED53FF4F8491F901E155FF4FD4918F
:1001F000F901E556FF4FC491CC23A9F0162F8111C8
:100200000E949900EC2FF0E0EE0FFF1FE957FF4F1F
:10021000A591B4918FB7F894EC91111108C0D095C5
:10022000DE23DC938FBFDF91CF911F910895DE2BEA
:10023000F8CFCF93DF9390E0FC01E155FF4F24917D
:1002400085569F4FFC0184918823D1F090E0880F60
:10025000991FFC01E358FF4FA591B491FC01E957A8
:10026000FF4FC591D491623071F49FB7F8943C91DF
:10027000822F809583238C93E8812E2B28839FBF28
:10028000DF91CF9108958FB7F894EC912E2B2C939A
:100290008FBFF6CF3FB7F8948091390290913A0220
:1002A000A0913B02B0913C0226B5A89B05C02F3F10
:1002B00019F00196A11DB11D3FBFBA2FA92F982F8C
:1002C0008827BC01CD01620F711D811D911D42E087
:1002D000660F771F881F991F4A95D1F708958F924F
:1002E0009F92AF92BF92CF92DF92EF92FF924B011B
:1002F0005C010E944A016B017C010E944A016C1959
:100300007D098E099F09683E734081059105A8F318
:1003100021E0821A9108A108B10888EEC80E83E096
:10032000D81EE11CF11C81149104A104B10429F729
:10033000FF90EF90DF90CF90BF90AF909F908F9005
:100340000895AF92BF92CF92DF92EF92FF920F93F8
:100350001F93CF93DF936C017B018B01040F151F5B
:10036000EB015E01AE18BF08C017D10759F06991C3
:10037000D601ED91FC910190F081E02DC601099527
:10038000892B79F7C501DF91CF911F910F91FF90D4
:10039000EF90DF90CF90BF90AF900895FC01538D08
:1003A000448D252F30E0842F90E0821B930B54174F
:1003B00010F0CF96089501970895FC01918D828DDC
:1003C000981761F0A28DAE0FBF2FB11D5D968C9175
:1003D000928D9F5F9F73928F90E008958FEF9FEFB4
:1003E0000895FC01918D828D981731F0828DE80F70
:1003F000F11D858D90E008958FEF9FEF0895FC012A
:10040000918D228D892F90E0805C9F4F821B9109F6
:100410008F739927089583EB92E00E94FF0121E0FA
:10042000892B09F420E0822F089580E090E0892B49
:1004300029F00E940B0281110C9400000895FC0128
:10044000A48DA80FB92FB11DA35ABF4F2C91848D35
:1004500090E001968F739927848FA689B7892C9392
:10046000A089B1898C91837080648C93938D848DE5
:10047000981306C00288F389E02D80818F7D8083E8
:100480000895EF92FF920F931F93CF93DF93EC01A8
:1004900081E0888F9B8D8C8D98131AC0E889F9892B
:1004A000808185FF15C09FB7F894EE89FF8960832E
:1004B000E889F98980818370806480839FBF81E0AF
:1004C00090E0DF91CF911F910F91FF90EF900895F1
:1004D000F62E0B8D10E00F5F1F4F0F731127E02ECC
:1004E0008C8D8E110CC00FB607FCFACFE889F98904
:1004F000808185FFF5CFCE010E941F02F1CFEB8DE9
:10050000EC0FFD2FF11DE35AFF4FF0829FB7F894D7
:100510000B8FEA89FB8980818062CFCFCF93DF93F5
:10052000EC01888D8823B9F0AA89BB89E889F9890B
:100530008C9185FD03C0808186FD0DC00FB607FC40
:10054000F7CF8C9185FFF2CF808185FFEDCFCE0173
:100550000E941F02E9CFDF91CF9108950895209165
:10056000F301260F3327331F21323105ECF420919C
:100570008902FC0190E080E0243069F082E0089577
:10058000A091F3012191AC014D525E4FA40FB52F04
:10059000B11D2C930196861798F38091F301680F93
:1005A0006093F30180E0089581E00895109289023C
:1005B00081E0809388021092630261E082E10E94F0
:1005C000EB0061E083E10E94EB00E9EBF0E0808169
:1005D0008E7F808380818D7F808388E48093B800C4
:1005E00085E48093BC00089510924202109241026B
:1005F000109290021092B2020E94D60287E990E017
:100600009093400280933F0288E990E090933E02ED
:1006100080933D020895CF93DF9391E09093D201B0
:100620008823B9F0C091B800D091BA008091BC0085
:100630008A7B8093BC0060E082E10E94EB0060E076
:1006400083E10E94EB000E94D602D093BA00C093CF
:10065000B800DF91CF9108958F929F92AF92BF9291
:10066000CF92DF92EF92FF920F931F93CF93DF937E
:10067000D091B202D13208F0D7C0182FC091B10288
:100680000E944A016B017C018091890281116BC03B
:1006900082E080938902109388028FEF8093870213
:1006A00010928602D0938502A1E9B2E0E5E6F2E07D
:1006B00080E0D81391C01092640280916402CC0F44
:1006C000C82BC093640280916302813009F088C016
:1006D000109263020E944A016B017C0180916402C6
:1006E0008093BB0080918B0290918C02A0918D022F
:1006F000B0918E02892B8A2B8B2BA1F00E944A018C
:1007000000918B0210918C0220918D0230918E020B
:100710006C197D098E099F090617170728073907E5
:1007200008F442C08091BC0083FDD8CF85EC809353
:10073000BC000E944A016B017C01809189028230D9
:1007400009F450C0809187028F3F09F46FC08091F7
:100750008702803209F46CC080918702803309F4EB
:1007600069C084E026C080918B0290918C02A09198
:100770008D02B0918E02892B8A2B8B2B09F484CFAA
:100780000E944A0180908B0290908C02A0908D0272
:10079000B0908E026C197D098E099F098616970606
:1007A000A806B90608F070CF80918A020E940B0358
:1007B00085E0109290021092B20210928F02DF91A7
:1007C000CF911F910F91FF90EF90DF90CF90BF904E
:1007D000AF909F908F9008959D9191938F5F69CF77
:1007E00085EEA5CF80918B0290918C02A0918D0215
:1007F000B0918E02892B8A2B8B2B09F49ECF0E94FD
:100800004A0100918B0210918C0220918D0230914F
:100810008E026C197D098E099F0906171707280794
:10082000390708F08ACFC0CF81E0C3CF80E0C1CFC5
:1008300082E0BFCF83E0BDCF1F93CF93DF93EA0168
:10084000122FDC0111968D919C91DC01ED91FC91B0
:100850000280F381E02D0995C817D90729F4812F6B
:100860000E942C0391E0811190E0892FDF91CF91BC
:100870001F910895CF93DF93EC018B818823A1F022
:10088000888191E090938F028093B1021092900240
:100890001092B20281E00E942C0391E0811190E05D
:1008A000892FDF91CF9108950E94F40281E08B831C
:1008B000CE010E943A04982F8111E2CFF1CF089522
:1008C000E091420280914102E81730F4F0E0ED5BE4
:1008D000FD4F808190E008958FEF9FEF08959091F4
:1008E0004202809141022FEF3FEF981748F4E92F21
:1008F000F0E0ED5BFD4F208130E09F5F909342027E
:10090000C90108958091410290914202891B990B7F
:100910000895CF92DF92EF92FF920F931F93CF93A0
:10092000DF937C01CB018A0120918F02222389F081
:10093000EB016B01C40ED51ECC15DD0569F0699184
:10094000D701ED91FC910190F081E02DC70109954F
:10095000F3CF642F0E94AF02C801DF91CF911F91A6
:100960000F91FF90EF90DF90CF900895CF93DF939A
:100970001F92CDB7DEB7698320918F022223F9F051
:100980002091B202203258F021E030E0FC013383A4
:10099000228390E080E00F90DF91CF9108958091C5
:1009A0009002E82FF0E0EF56FD4F998190838F5F22
:1009B000809390028093B20281E090E0ECCF61E0FE
:1009C000CE0101960E94AF02F7CFFC01248131E0F5
:1009D00030938F022093B102109290021092B202D3
:1009E0008485682B80E593E00E94B60481E00C9436
:1009F0002C0390E080E0089510922B0260E086E0E6
:100A00000E94EB0060E087E00C94EB002F923F9295
:100A10004F925F926F927F928F929F92AF92BF920E
:100A2000CF92DF92EF92FF920F931F93CF93DF93BA
:100A30005C011B016A01F12CE12CD50114968D910A
:100A40009C9186010E191F098017910708F48C01EB
:100A5000F501D0810E944A012B013C01809189025D
:100A6000811172C0C02F013208F0C0E2F1E0F093B2
:100A7000890221E0C601801B910BE816F90608F4F3
:100A800020E0209388028FEF8093870210928602E5
:100A90008C0F80938502A1E0A09364028091640290
:100AA000DD0FD82BD093640280916302813009F06E
:100AB00090C0109263020E944A012B013C01809178
:100AC00064028093BB0080918B0290918C02A09174
:100AD0008D02B0918E02892B8A2B8B2BA1F00E9464
:100AE0004A0120918B0230918C0240918D025091ED
:100AF0008E02641975098609970926173707480772
:100B0000590708F442C08091BC0083FDD8CFB5ECF2
:100B1000B093BC000E944A012B013C0180918902E4
:100B2000813009F45AC0809186028C1710F4C0916C
:100B30008602A5E6B2E0E3E4F2E080E08C1751F132
:100B40009D9191938F5FFACF80918B0290918C024F
:100B5000A0918D02B0918E02892B8A2B8B2B09F4E8
:100B60007DCF0E944A0120918B0230918C024091EE
:100B70008D0250918E02641975098609970926170E
:100B800037074807590708F069CF80918A020E9409
:100B90000B03C0E010924202C0934102C01711063D
:100BA00009F057C041018E0C9F1CE401CE01881949
:100BB00099098017910798F5D50111968D919C910F
:100BC000DC01ED91FC910284F385E02D0995899378
:100BD000EDCFE5EEE093BC009DCF80918B0290912C
:100BE0008C02A0918D02B0918E02892B8A2B8B2BC7
:100BF00009F494CF0E944A0120918B0230918C021B
:100C000040918D0250918E026419750986099709E9
:100C1000261737074807590708F080CFB6CFE00EF0
:100C2000F11EEC14FD0408F408CF81E0DF91CF91B0
:100C30001F910F91FF90EF90DF90CF90BF90AF90FA
:100C40009F908F907F906F905F904F903F902F90EC
:100C5000089580E0EBCF0F931F93CF938C01C62FA5
:100C60000E94E5046C2F6460C8010E94E5046C2FAB
:100C70006B7FC8010E94E50483EC90E00197F1F7D7
:100C8000CF911F910F9108950F931F93CF93DF93EF
:100C90008C01D62FC42F607F642B0E942B0680E12D
:100CA000D89FB00111246C2BC801DF91CF911F9107
:100CB0000F910C942B06CF93DF93CDB7DEB7289717
:100CC0000FB6F894DEBF0FBECDBF98E0E8E0F1E0CC
:100CD000DE01119601900D929A95E1F790916403CF
:100CE000981708F48FEF90E0880F991F21E030E00B
:100CF0002C0F3D1F820F931FFC016081606840E054
:100D00008CE593E028960FB6F894DEBF0FBECDBFFA
:100D1000DF91CF910C94440640E061E08CE593E0D4
:100D20000E9444068BE39FE10197F1F780916503F0
:100D3000882319F080E00C945B06089541E00E943E
:100D4000440681E090E00895FB0101900020E9F75E
:100D50003197AF01461B570BDC01ED91FC910280EE
:100D6000F381E02D0994BC018CE593E00C94A4067A
:100D70008F929F92AF92BF92CF92DF92EF92FF92AB
:100D8000CF93DF93CDB7DEB7A1970FB6F894DEBF50
:100D90000FBECDBF6C018AE0C816D10424F480E4F4
:100DA00091E00E94B3060D2C000CEE08FF08F7FE40
:100DB0003EC041E06DE28CE593E00E9444062227AC
:100DC0003327A9012C193D094E095F0919A2FE011B
:100DD000B1967F019AE0892E912CA12CB12CCA01E9
:100DE000B901A50194010E94E90E605DF7016293CB
:100DF0007F01211531054105510589F7E114F10401
:100E000029F0B7018CE593E00E94A406A1960FB6E5
:100E1000F894DEBF0FBECDBFDF91CF91FF90EF9072
:100E2000DF90CF90BF90AF909F908F900895A701D3
:100E3000960119A2CE0181967C018AE0882E912C20
:100E4000A12CB12CCA01B901A50194010E94E90E9F
:100E5000605DF70162937F01211531054105510560
:100E600089F7CCCF85ED8093BC0080918B02909167
:100E70008C02A0918D02B0918E020796A11DB11D2A
:100E800023E0B695A795979587952A95D1F7209158
:100E9000BC0024FD03C010928902089540918B028A
:100EA00050918C0260918D0270918E02452B462BE1
:100EB000472B69F30097A105B10541F02AE22A9575
:100EC000F1F700C00197A109B109E1CF80918A0231
:100ED0000C940B031F920F920FB60F9211242F93B5
:100EE0003F938F939F93AF93BF93809135029091DF
:100EF0003602A0913702B09138023091340223E0DB
:100F0000230F2D3758F50196A11DB11D20933402F2
:100F10008093350290933602A0933702B093380243
:100F20008091390290913A02A0913B02B0913C022B
:100F30000196A11DB11D8093390290933A02A093AE
:100F40003B02B0933C02BF91AF919F918F913F9133
:100F50002F910F900FBE0F901F90189526E8230F2A
:100F60000296A11DB11DD2CF1F920F920FB60F9204
:100F700011242F933F934F935F936F937F938F939E
:100F80009F93AF93BF93EF93FF9383EB92E00E9405
:100F90001F02FF91EF91BF91AF919F918F917F9130
:100FA0006F915F914F913F912F910F900FBE0F90D6
:100FB0001F9018951F920F920FB60F9211242F9326
:100FC0008F939F93EF93FF93E091C302F091C4023C
:100FD0008081E091C902F091CA0282FD1BC090811C
:100FE0008091CC028F5F8F732091CD02821741F0E8
:100FF000E091CC02F0E0ED54FD4F958F8093CC0250
:10100000FF91EF919F918F912F910F900FBE0F90B5
:101010001F9018958081F4CF1F920F920FB60F92F8
:1010200011242F933F934F935F936F937F938F93ED
:101030009F93AF93BF93EF93FF938091B900887F05
:10104000803609F44AC0F0F5883209F4A7C018F5D3
:10105000803109F49BC0B8F4882309F4F9C08830C2
:1010600009F494C0FF91EF91BF91AF919F918F913F
:101070007F916F915F914F913F912F910F900FBE94
:101080000F901F901895883109F488C0803251F76D
:101090008093870214C0803409F49DC040F48033EB
:1010A000B9F38833F9F68093870285ECB0C08035B8
:1010B00009F485C0883509F496C0883499F60E94F1
:1010C0003207D0CF883909F48CC038F5883729F039
:1010D00050F4883611F0803729F683E08093890236
:1010E0001092150257C0883809F47BC0803919F076
:1010F000803809F0B7CF80911502803208F071C0B6
:10110000E091150281E08E0F809315028091BB0063
:10111000F0E0EB50FE4F80833DC0803B39F0E0F4BF
:10112000803A09F479C0883A09F09CCF84E0809332
:1011300089021092F4011092F301E0913F02F091C4
:10114000400209958091F30181110FC081E08093E5
:10115000F3011092D30109C0803C09F4A6CF883C6A
:1011600009F4A3CF883B09F07DCFE091F40181E041
:101170008E0F8093F401F0E0ED52FE4F808180935A
:10118000BB009091F4018091F30129C08091640229
:101190008093BB0085EC8093BC0064CF9091860265
:1011A00080918502981758F5E091860281E08E0FB4
:1011B00080938602F0E0EB59FD4F8081E9CFE0910A
:1011C000860281E08E0F809386028091BB00F0E062
:1011D000EB59FD4F8083909186028091850298178C
:1011E000C8F285E8D8CFE091860281E08E0F809327
:1011F00086028091BB00F0E0EB59FD4F8083809127
:10120000880281115CCF81E08093630284EA80933D
:10121000BC001092890226CF85EC8093BC0010920E
:10122000890280911502803230F4E0911502F0E0DD
:10123000EB50FE4F10826091150270E0E0913D028C
:10124000F0913E0285EF91E00995109215020ACFC8
:101250001092870234CFFC01908190539A3008F0AD
:1012600090E0818180532AE0929F800D112408959F
:10127000E3EBF2E01382128288EE93E0A0E0B0E0AC
:1012800084839583A683B78324E131E0318320836F
:1012900025EC30E03587248724EC30E0378726873B
:1012A00020EC30E0318B208B21EC30E0338B228B33
:1012B00022EC30E0358B248B26EC30E0378B268B0C
:1012C000118E128E138E148EE0E5F3E013821282DB
:1012D00084839583A683B78386E291E0918380839C
:1012E000ECE5F3E01382128288E391E0918380833E
:1012F000118687E2848380E1828782E08387148677
:101300000895CF93DF93CDB7DEB72C970FB6F8943F
:10131000DEBF0FBECDBF789484B5826084BD84B536
:10132000816084BD85B5826085BD85B5816085BDE0
:1013300080916E00816080936E0010928100809198
:101340008100826080938100809181008160809320
:101350008100809180008160809380008091B10045
:1013600084608093B1008091B00081608093B00070
:1013700080917A00846080937A0080917A00826004
:1013800080937A0080917A00816080937A008091C6
:101390007A00806880937A001092C100E091C302C5
:1013A000F091C40282E08083E091BF02F091C0021C
:1013B0001082E091C102F091C2028FEC8083109202
:1013C000CB02E091C702F091C80286E08083E091F1
:1013D000C502F091C602808180618083E091C502E0
:1013E000F091C602808188608083E091C502F0910F
:1013F000C602808180688083E091C502F091C602B8
:1014000080818F7D808361E086E00E94190161E028
:1014100087E00E94190162E083E00E94190162E006
:1014200082E00E94190162E084E00E94190162E0FA
:1014300080E00E94190160E086E00E94EB0060E01D
:1014400087E00E94EB000E94F4020E94F4021092D6
:10145000610380916703823018F098E090936103F4
:101460008093640362E370E080E090E00E946F018B
:10147000609168038CE593E00E94E50468EE73E0F8
:1014800080E090E00E946F0160E38CE593E00E94B1
:101490002B060BE416E4C8010197F1F760E38CE535
:1014A00093E00E942B06C8010197F1F760E38CE5F9
:1014B00093E00E942B0683E592E00197F1F760E24A
:1014C0008CE593E00E942B0660916103606240E02E
:1014D0008CE593E00E94440684E08093620340E040
:1014E0006CE08CE593E00E9444060E948C0682E04A
:1014F0008093630340E066E08CE593E00E9444063D
:1015000040E062E08CE593E00E9444068BE39FE1BB
:101510000197F1F788E08093680360E08CE593E041
:101520000E94E5040E948C068CE491E00E94B306C0
:101530008091160290911702009711F00E94C10F3E
:1015400086E090E00E94250F8C0188E6F8018083F8
:1015500080E593E092838183138280E290E095831B
:10156000848310931702009316020E94F402EE2463
:10157000E394F801E382C8010E943A04811107C094
:101580000E948C0689E591E00E94B306FFCF1C867D
:101590008091160290911702FC0124813581232B42
:1015A00089F02081E0928F022093B1021092900284
:1015B0001092B20221E041E050E0BE01645F7F4F33
:1015C0000E941C0441E050E08E010F5F1F4FB801E4
:1015D00080911602909117020E940605898190E081
:1015E000880F892F881F990B892B09F49DC04BE028
:1015F00050E061E770E0C8010E94AA0ECE010A9691
:101600000E942B09E82EE981E154E331E0F40E2E2B
:10161000000CFF0BE25FF44F0C940B0FA70D230B94
:10162000230BC20D230B210B230B230B230B980D34
:10163000230B230BB00DBF0DBC0D230B230B230B72
:10164000B90DF2E0FF2ECE0105960E942B09D82E8F
:1016500048E050E068E670E0C8010E94AA0EC801A8
:101660000E942B09C82ECE0104960E942B09B82E89
:10167000CE0107960E942B09382F86E0F8011192BF
:101680008A95E9F72AE0832F622F0E94C90E982FCE
:10169000880F890F880F830F8A838B2D0E94C90EB4
:1016A000982F880F890F880F8B0D8B838C2D0E94AC
:1016B000C90E982F880F890F880F8C0D8C838D2D64
:1016C0000E94C90E982F880F890F880F8D0D8E8369
:1016D0008F2D0E94C90E982F990F890F880FF80E31
:1016E000FF828E2D0E94C90E982F880F890F880FB8
:1016F0008E0D88878091160290911702FC0124813B
:1017000035812830310580F0208131E030938F021F
:101710002093B102109290021092B20221E048E0B0
:1017200050E0B8010E941C0490E080E00E94B30EDB
:10173000C82ED12CD0920101C092000181E090E02E
:101740000E94B30EE82EF12CF0921F02E0921E02CE
:1017500082E090E00E94B30E91E0811101C090E020
:1017600090932202F8E1CF16D10434F087E090E0A4
:1017700090930101809300012CE3E216F10424F020
:1017800010921F0210921E0268EE73E080E090E05B
:101790000E946F010E948C0662E671E083EB92E08A
:1017A0000E94A4066EE771E083EB92E00E94A4061B
:1017B000FCE32F2E312CA8EE4A2EA3E05A2E612CEA
:1017C000712C8FB7F8948090350290903602A090DB
:1017D0003702B09038028FBF809130029091310271
:1017E000A0913202B0913302A5019401281B390B5C
:1017F0004A0B5B0BDA01C901843F9140A105B10599
:1018000008F4A7C08092300290923102A092320276
:10181000B09233021982E0901602F0901702F7019D
:1018200084819581892BC9F0808191E090938F020A
:101830008093B102109290021092B20220E041E037
:1018400050E0B801C7010E941C04882331F047E032
:1018500050E0B801C7010E94060599819F778A81EF
:101860002B81E22FF0E034E0F595E7953A95E1F72A
:101870003E2F330F330F6E2F631B660F620F70E026
:1018800070931D0260931C02282F30E044E03595D0
:1018900027954A95E1F7322F330F330F422F431B21
:1018A000440F480F50E050931B0240931A02292F17
:1018B00030E0E4E035952795EA95E1F7822F880F2F
:1018C000880FF22FF81B8F2F880F890F90E09093CD
:1018D00019028093180220912202222351F12091B3
:1018E0002B02211126C02091000130910101261701
:1018F0003707F9F420911E0230911F022417350793
:10190000C1F4892BB1F481E080932B022FB7F894B6
:101910008091350290913602A0913702B091380241
:101920002FBF8093270290932802A0932902B0939F
:101930002A0280E00E945B068091200290912102A1
:101940008130910509F462C108F41FC1029709F4BE
:1019500071C180912C0290912D02A0912E02B09124
:101960002F02A5019401281B390B4A0B5B0BDA01EE
:10197000C90184369105A105B10508F494C080928F
:101980002C0290922D02A0922E02B0922F0283E0A0
:101990000E94C2004C0182E00E94C2005C0184E00F
:1019A0000E94C2006C0180E00E94C2007C01811490
:1019B000910409F077C180912602811110C081E065
:1019C0008093260280912B02882309F443C10E9450
:1019D000FC0468EC70E080E090E00E946F01A114CC
:1019E000B10409F081C180912502811116C081E006
:1019F00080932502809120029091210281309105EF
:101A000009F457C1029709F462C10E948C0666E985
:101A100070E080E090E00E946F01C114D10409F0F1
:101A200085C180912402811122C081E0809324022B
:101A300080912002909121028130910509F45BC1CF
:101A4000029709F466C10E948C066DEB71E083EB8E
:101A500092E00E94A4066EE771E083EB92E00E94A0
:101A6000A40666E970E080E090E00E946F01E11456
:101A7000F10409F062C180912302811114C081E058
:101A8000809323026091220268276093220282E001
:101A900090E00E94BB0E0E948C0668EC70E080E033
:101AA00090E00E946F0180912B028823A1F18FB7F3
:101AB000F894C0903502D0903602E0903702F09052
:101AC00038028FBFC701B601A30192010E94E90E3F
:101AD000643F71408105910508F036C161E086E000
:101AE0000E94EB0061E087E00E94EB0080912702FA
:101AF00090912802A0912902B0912A02C81AD90A0D
:101B0000EA0AFB0AF0E3CF16F5E7DF06E104F10489
:101B100010F00E94FC0420E030E0232B09F451CEA9
:101B20000E940B02882309F44CCE0E94000049CE8B
:101B30008A81FF24F394813609F485CD8B81E7E017
:101B4000FE2E8E3609F07FCD76E0F72E7CCD8B8190
:101B500068E0F62E823709F076CD54E0F52E73CD8D
:101B60008B8145E0F42E823709F06DCD33E0F32E02
:101B70006ACD29E0F22E67CD9AE0F92E64CD8BE094
:101B8000F82E61CDBCE0FB2E5ECD81E891E00E9495
:101B9000B30680911C0290911D020E94B80687E84E
:101BA00091E00E94B30680911A0290911B020E945C
:101BB000B80687E891E00E94B306809118029091E0
:101BC00019020E94B80681E00E945B0689E891E054
:101BD0000E94B30680910001909101010E94B80615
:101BE00087E891E00E94B30680911E0290911F0247
:101BF0000E94B80680912202811105C087E491E01D
:101C00000E94B306A6CE82E491E0FACF8EE891E07E
:101C10000E94B30681E00E945B0681E891E00E9489
:101C2000B30680910001909101010E94B8068FE9EE
:101C300091E0E6CF84EA91E00E94B30681E00E9441
:101C40005B0686EB91E00E94B30680911E029091A4
:101C50001F02EBCF809120029091210281309105EB
:101C600069F028F0029769F00E948C06B2CE81E0FC
:101C700090E09093210280932002F6CF82E090E0E2
:101C8000F8CF10922102109220026091000190E0A2
:101C900080E00E94BB0E60911E0281E090E00E94F5
:101CA000BB0EE2CF8A94892809F099CE10922602C1
:101CB00096CE8091000190910101019668E170E05B
:101CC0000E94D50E90930101809300019ECE8091D9
:101CD0001E0290911F020196B1010E94D50E9093B1
:101CE0001F0280931E0291CEAA94AB2809F095CED4
:101CF0001092250292CE80910001909101014796A9
:101D000068E170E00E94D50E90930101809300017C
:101D10009ACE80911E0290911F02CB96B1010E9433
:101D2000D50E90931F0280931E028DCECA94CD28AB
:101D300009F09DCE109224029ACEEA94EF2809F081
:101D4000B2CE10922302AFCE60E086E00E94EB009C
:101D500060E0C9CEFB01DC0102C005900D9241504C
:101D60005040D8F70895F999FECF92BD81BDF89AF9
:101D7000992780B50895262FF999FECF1FBA92BDF5
:101D800081BD20BD0FB6F894FA9AF99A0FBE01965C
:101D90000895991B79E004C0991F961708F0961BC7
:101DA000881F7A95C9F78095089597FB072E16F43A
:101DB000009407D077FD09D00E94110F07FC05D0D1
:101DC0003EF4909581959F4F0895709561957F4F52
:101DD0000895A1E21A2EAA1BBB1BFD010DC0AA1F6C
:101DE000BB1FEE1FFF1FA217B307E407F50720F084
:101DF000A21BB30BE40BF50B661F771F881F991FFF
:101E00001A9469F760957095809590959B01AC0147
:101E1000BD01CF010895EE0FFF1F0590F491E02D55
:101E20000994AA1BBB1B51E107C0AA1FBB1FA61721
:101E3000B70710F0A61BB70B881F991F5A95A9F773
:101E400080959095BC01CD0108950F931F93CF937A
:101E5000DF938230910510F482E090E0E0916B0313
:101E6000F0916C0330E020E0B0E0A0E0309799F40E
:101E70002115310509F44AC0281B390B24303105DE
:101E8000D8F58A819B816115710589F1FB019383E6
:101E90008283FE0111C04081518102811381481764
:101EA0005907E0F04817590799F4109761F0129616
:101EB0000C93129713961C933296CF01DF91CF911A
:101EC0001F910F91089500936B0310936C03F4CF4F
:101ED0002115310551F04217530738F0A901DB01F4
:101EE0009A01BD01DF01F801C1CFEF01F9CF909355
:101EF0006C0380936B03CDCFFE01E20FF31F819340
:101F000091932250310939832883D7CF20916903D7
:101F100030916A03232B41F4209104013091050193
:101F200030936A03209369032091020130910301E9
:101F30002115310541F42DB73EB74091060150916E
:101F40000701241B350BE0916903F0916A03E21746
:101F5000F307A0F42E1B3F0B2817390778F0AC01CC
:101F60004E5F5F4F2417350748F04E0F5F1F5093A9
:101F70006A0340936903819391939FCFF0E0E0E07F
:101F80009CCFCF93DF930097E9F0FC013297138247
:101F90001282A0916B03B0916C03ED0130E020E060
:101FA0001097A1F420813181820F931F2091690342
:101FB00030916A032817390709F061C0F0936A036A
:101FC000E0936903DF91CF910895EA01CE17DF070F
:101FD000E8F54A815B819E0141155105B1F7E901A0
:101FE000FB83EA8349915991C40FD51FEC17FD0774
:101FF00061F4808191810296840F951FE901998394
:102000008883828193819B838A83F0E0E0E012964B
:102010008D919C9113970097B9F52D913C91119753
:10202000CD010296820F931F2091690330916A03BC
:102030002817390739F6309751F510926C03109232
:102040006B03B0936A03A0936903BCCFD383C283AD
:1020500040815181840F951FC817D90761F44E5FE5
:102060005F4F88819981480F591F518340838A812E
:102070009B81938382832115310509F0B0CFF093C2
:102080006C03E0936B039ECFFD01DC01C0CF138294
:082090001282D7CFF894FFCFB4
:10209800070000006D038000000040001400540099
:1020A800000000004102A101CE018E02FF01DD0106
:1020B800F10100000000B6048904F9045F048204F9
:1020C8006F046004000000009E06A101F904AE023E
:1020D8003000204241540020544154004B686F693D
:1020E80020646F6E672E2E2E004C6F692052544369
:1020F800210053616E2073616E6721204E75742034
:10210800444F574E206F206368616E2034000D0ADB
:102118000047696F3A20003A0042543A2000436170
:10212800692067696F2062616F2074687563002099
:102138002020200043616920706875742062616FF7
:10214800207468756300506875743A20004E757481
:1021580020444F574E2064756F63206E68616E216E
:02216800000075
:00000001FF
