:100000000C9462000C948A000C948A000C948A0070
:100010000C948A000C948A000C948A000C948A0038
:100020000C948A000C948A000C948A000C948A0028
:100030000C948A000C948A000C948A000C948A0018
:100040000C9469040C948A000C94D9040C94B304A5
:100050000C948A000C948A000C948A000C948A00F8
:100060000C948A000C948A000000000024002700F1
:100070002A000000000023002600290000000000E4
:10008000250028002B0004040404040404040202D4
:100090000202020203030303030301020408102007
:1000A0004080010204081020010204081020000012
:1000B0000008000201000003040700000000000027
:1000C0000000C90711241FBECFEFD8E0DEBFCDBFAF
:1000D00022E0AEEAB1E001C01D92A436B207E1F71A
:1000E00011E0A0E0B1E0EAE8F5E102C005900D9270
:1000F000AE3AB107D9F710E0C2E6D0E004C02197CC
:10010000FE010E94CB08C136D107C9F70E940B053A
:100110000C94C30A0C940000CF92DF92EF92FF92EE
:100120006B017C01E091D301F091D40182E08083E6
:10013000C11481EED806E104F104A1F060E079E099
:100140008DE390E0A70196010E94A9082150310992
:10015000410951095695479537952795211580E115
:100160003807A8F0E091D301F091D401108260E843
:1001700074E88EE190E0A70196010E94A908215041
:100180003109410951095695479537952795E091D1
:10019000CF01F091D0013083E091D101F091D201F3
:1001A00020831092DB01E091D701F091D80186E025
:1001B0008083E091D501F091D601808180618083B8
:1001C000E091D501F091D601808188608083E09133
:1001D000D501F091D601808180688083E091D501BE
:1001E000F091D60180818F7D8083FF90EF90DF902A
:1001F000CF900895833081F028F4813099F08230D7
:10020000A9F008958730A9F08830C9F08430B1F49E
:10021000809180008F7D03C0809180008F778093D4
:100220008000089584B58F7784BD089584B58F7D4F
:10023000FBCF8091B0008F778093B00008958091BC
:10024000B0008F7DF9CF1F93CF93DF93EBEBF0E0FE
:100250009491E7EAF0E0D491E3E9F0E0C491CC2393
:10026000B9F0182F992319F0892F0E94FA00EC2F6A
:10027000F0E0EE0FFF1FE458FF4FA591B4918FB748
:10028000F894EC91111108C0D095DE23DC938FBF58
:10029000DF91CF911F910895DE2BF8CF3FB7F894EF
:1002A0008091BF019091C001A091C101B091C201A4
:1002B00026B5A89B05C02F3F19F00196A11DB11DC1
:1002C0003FBFBA2FA92F982F8827BC01CD01620FFD
:1002D000711D811D911D42E0660F771F881F991FB8
:1002E0004A95D1F708958F929F92AF92BF92CF9285
:1002F000DF92EF92FF924B015C010E944E016B0175
:100300007C010E944E016C197D098E099F09683E8F
:10031000734081059105A8F321E0821A9108A10894
:10032000B10888EEC80E83E0D81EE11CF11C8114D0
:100330009104A104B10429F7FF90EF90DF90CF90D2
:10034000BF90AF909F908F9008952FB7F8946091D1
:10035000BB017091BC018091BD019091BE012FBF86
:100360000895AF92BF92CF92DF92EF92FF920F93D8
:100370001F93CF93DF936C017B018B01040F151F3B
:10038000EB015E01AE18BF08C017D10759F06991A3
:10039000D601ED91FC910190F081E02DC601099507
:1003A000892B79F7C501DF91CF911F910F91FF90B4
:1003B000EF90DF90CF90BF90AF900895FC01538DE8
:1003C000448D252F30E0842F90E0821B930B54172F
:1003D00010F0CF96089501970895FC01918D828DBC
:1003E000981761F0A28DAE0FBF2FB11D5D968C9155
:1003F000928D9F5F9F73928F90E008958FEF9FEF94
:100400000895FC01918D828D981731F0828DE80F4F
:10041000F11D858D90E008958FEF9FEF0895FC0109
:10042000918D228D892F90E0805C9F4F821B9109D6
:100430008F739927089583EC91E00E940F0221E0C9
:10044000892B09F420E0822F089580E090E0892B29
:1004500029F00E941B0281110C9400000895FC01F8
:10046000A48DA80FB92FB11DA35ABF4F2C91848D15
:1004700090E001968F739927848FA689B7892C9372
:10048000A089B1898C91837080648C93938D848DC5
:10049000981306C00288F389E02D80818F7D8083C8
:1004A0000895EF92FF920F931F93CF93DF93EC0188
:1004B00081E0888F9B8D8C8D98131AC0E889F9890B
:1004C000808185FF15C09FB7F894EE89FF8960830E
:1004D000E889F98980818370806480839FBF81E08F
:1004E00090E0DF91CF911F910F91FF90EF900895D1
:1004F000F62E0B8D10E00F5F1F4F0F731127E02EAC
:100500008C8D8E110CC00FB607FCFACFE889F989E3
:10051000808185FFF5CFCE010E942F02F1CFEB8DB8
:10052000EC0FFD2FF11DE35AFF4FF0829FB7F894B7
:100530000B8FEA89FB8980818062CFCFCF93DF93D5
:10054000EC01888D8823B9F0AA89BB89E889F989EB
:100550008C9185FD03C0808186FD0DC00FB607FC20
:10056000F7CF8C9185FFF2CF808185FFEDCFCE0153
:100570000E942F02E9CFDF91CF91089583EC91E0A3
:100580000E949E02E3ECF1E0A289B3898C918F7EF8
:100590008C93A289B3898C91877F8C93A289B3892C
:1005A0008C918F778C93A289B3898C918F7D8C935A
:1005B000828D818F089542E050E06CE171E083EC20
:1005C00091E00C94B101CF93DF93FC0144815581FC
:1005D0006081718183EC91E00E94B101EC010E9485
:1005E000DB028C0F9D1FDF91CF910895CF93DF9396
:1005F000FC0101900020E9F73197AF01481B590B2E
:10060000BC0183EC91E00E94B101EC010E94DB028D
:100610008C0F9D1FDF91CF9108950F931F93CF9360
:10062000DF93EC0188819981009759F02A813B8101
:100630002617370730F081E0DF91CF911F910F919E
:1006400008958B016F5F7F4F0E94F609009759F064
:10065000998388831B830A832C813D81232B59F73F
:10066000FC011082E8CF80E0E7CFCF93DF93EC016D
:1006700088819981009711F00E946D091982188272
:100680001D821C821B821A82DF91CF910895EF9206
:10069000FF920F931F93CF93DF93EC01FB01E08058
:1006A000F180E114F10411F10481158101151105A6
:1006B000A9F08C819D81080F191FB801CE010E94FD
:1006C0000D03882399F0288139818C819D81B701A0
:1006D000820F931F0E94BC0A1D830C83CE01DF9101
:1006E000CF911F910F91FF90EF900895CE010E943E
:1006F0003503F4CFEF92FF920F931F93CF93DF93C5
:10070000EC017B018A01BA010E940D0381110BC02B
:10071000CE010E943503CE01DF91CF911F910F9141
:10072000FF90EF9008951D830C83B7018881998114
:100730000E94BC0AF0CFEF92FF920F931F93CF93CA
:10074000DF93CDB7DEB7A2970FB6F894DEBF0FBE2A
:10075000CDBF8C01CB01BA01F80111821082138246
:100760001282158214822AE0AE014F5F5F4F7A0138
:100770000E940108F70101900020E9F73197AF01CD
:100780004E195F09B701C8010E947A03A2960FB6FD
:10079000F894DEBF0FBECDBFDF91CF911F910F91B7
:1007A000FF90EF900895FC01118210821382128253
:1007B00015821482FB0101900020E9F73197AF0107
:1007C000461B570B0C947A03FC01808191810097A2
:1007D00011F00C946D090895DF92EF92FF920F9340
:1007E0001F93CF93DF93CDB7DEB72C970FB6F89456
:1007F000DEBF0FBECDBF60930001709301018093F7
:1008000002019093030180E0E82E81E0F82E10E0D1
:1008100000E0F701D1907F01C8010E945C08D81662
:1008200021F06D2DC8010E9464080F5F1F4F043036
:10083000110579F710E000E08091B3019091B401C7
:1008400008171907ACF481E00E94230160E971E008
:1008500080E090E00E94730180E00E9423016CE23E
:1008600071E080E090E00E9473010F5F1F4FE4CFC2
:1008700040910001509101016091020170910301CA
:10088000CE0107960E949B036FE171E0CE010196B5
:100890000E94D303BE01695F7F4FCE0101960E9483
:1008A00047030E94E302CE0101960E94E403CE01B9
:1008B00007960E94E4032C960FB6F894DEBF0FBE95
:1008C000CDBFDF91CF911F910F91FF90EF90DF90FF
:1008D00008951F920F920FB60F9211242F933F93FA
:1008E0008F939F93AF93BF938091BB019091BC0175
:1008F000A091BD01B091BE013091BA0123E0230F58
:100900002D3758F50196A11DB11D2093BA01809392
:10091000BB019093BC01A093BD01B093BE01809137
:10092000BF019091C001A091C101B091C201019697
:10093000A11DB11D8093BF019093C001A093C1017F
:10094000B093C201BF91AF919F918F913F912F9131
:100950000F900FBE0F901F90189526E8230F029658
:10096000A11DB11DD2CF1F920F920FB60F9211246D
:100970002F933F934F935F936F937F938F939F93A7
:10098000AF93BF93EF93FF9383EC91E00E942F020C
:10099000FF91EF91BF91AF919F918F917F916F9157
:1009A0005F914F913F912F910F900FBE0F901F902D
:1009B00018951F920F920FB60F9211242F938F93B9
:1009C0009F93EF93FF93E091D301F091D401808145
:1009D000E091D901F091DA0182FD1BC090818091F4
:1009E000DC018F5F8F732091DD01821741F0E09170
:1009F000DC01F0E0ED53FE4F958F8093DC01FF9119
:100A0000EF919F918F912F910F900FBE0F901F909C
:100A100018958081F4CFCF93DF93CDB7DEB7689779
:100A20000FB6F894DEBF0FBECDBF789484B5826058
:100A300084BD84B5816084BD85B5826085BD85B582
:100A4000816085BD80916E00816080936E00109200
:100A5000810080918100826080938100809181007B
:100A6000816080938100809180008160809380000C
:100A70008091B10084608093B1008091B00081606A
:100A80008093B00080917A00846080937A00809196
:100A90007A00826080937A0080917A0081608093EE
:100AA0007A0080917A00806880937A001092C10069
:100AB0005CE9252E50E0352EF101249168E8862E60
:100AC00060E0962EF40184918823C9F090E0880FAD
:100AD000991FFC01E859FF4FA591B491FC01E4581E
:100AE000FF4F459154913FB7F8949C91822F809588
:100AF00098239C93FA019081892380833FBFE7EA82
:100B0000F0E02491E3E9F0E08491882399F090E00B
:100B1000880F991FFC01E859FF4FA591B491FC0182
:100B2000E458FF4F859194918FB7F894EC91E22BA4
:100B3000EC938FBF90E080E00E945C0880930001FE
:100B400081E090E00E945C088093010182E090E0E7
:100B50000E945C088093020183E090E00E945C08A0
:100B6000809303018091000190910101A091020105
:100B7000B0910301181619061A061B0664F080E8E6
:100B800095E2A0E0B0E08093000190930101A09372
:100B90000201B09303016091000170910101809105
:100BA0000201909103010E948C004091000150913C
:100BB000010160910201709103018E010F5F1F4FCF
:100BC000C8010E949B036AE271E0CE0143960E9435
:100BD000D303B801CE0143960E9447030E94E3026B
:100BE000CE0143960E94E403C8010E94E40390E909
:100BF000492E55245394612C712C20E0A22E20E024
:100C0000B22EE0EBF0E08491F101E490F401F49075
:100C1000FF2009F4CDC081110E94FA00EF2DF0E011
:100C2000EE0FFF1FEE58FF4FA591B4918C91E82273
:100C300009F4BEC08091AE0181110DC0F1E0F093C6
:100C4000AE010E94A5016093AF017093B001809343
:100C5000B1019093B2010E94A501C090AF01D09064
:100C6000B001E090B101F090B2016C197D098E09DC
:100C70009F09693B7B408105910548F18091B9014D
:100C8000811154C081E08093B9011092B401109297
:100C9000B3010E94BE0260E875E280E090E00E942D
:100CA0008C008AE391E00E94F60284E491E00E94C5
:100CB000F60284E591E00E94F6020E94A50160938D
:100CC000AF017093B0018093B1019093B201809114
:100CD000B901882309F4E8C00E94A501A30192018B
:100CE0000E94A90821E0683C71058105910508F082
:100CF00020E0822F0E942301E090B301F090B40124
:100D00001E141F040CF419C16AE070E080E090E04A
:100D10000E947301A114B10409F473CF0E941B0255
:100D2000882309F46ECF0E9400006BCF1092B901A6
:100D300086E691E00E94F60264EF71E080E090E0C8
:100D40000E9473010E94BE02609100017091010136
:100D500080910201909103010E948C00409100015A
:100D6000509101016091020170910301C8010E943C
:100D70009B0368E771E0CE0143960E94D303B8015C
:100D8000CE0143960E9447030E94E302CE014396A0
:100D90000E94E403C8010E94E4030E94A50160933D
:100DA000B5017093B6018093B7019093B80185CFD8
:100DB0008091AE01882309F48ACF8091B901109205
:100DC000AE01882309F470C00E94A501C090AF0154
:100DD000D090B001E090B101F090B2016C197D09A2
:100DE0008E099F09683E73408105910508F074CF14
:100DF0008091B3019091B40101969093B4018093D6
:100E0000B3011C8A1B8A1E8A1D8A188E1F8A4AE01B
:100E1000B8010E94F607F80101900020E9F7319728
:100E2000AF01401B510BB801CE0143960E947A03DB
:100E30001A8219821C821B821E821D8246E050E0AB
:100E40006BE871E0C8010E947A03BE016D5E7F4FBE
:100E5000C8010E9447037C01FC01C480D580F4E0F6
:100E6000CF0ED11CB6010E940D0381110EC0C70127
:100E70000E943503C7010E94E302C8010E94E403F7
:100E8000CE0143960E94E40322CFF70120813181F5
:100E90008481958162E971E0820F931F0E94BC0AF0
:100EA000F701D582C482E6CF80E00E9423010E9430
:100EB000A501C090B501D090B601E090B701F090C7
:100EC000B8016C197D098E099F09613D7740810544
:100ED000910508F419CF40910001509101016091F2
:100EE000020170910301C8010E949B031C8A1B8AA6
:100EF0001E8A1D8A188E1F8A46E150E067E971E05C
:100F0000CE0143960E947A03B801CE0143960E9417
:100F100047030E94E302CE0143960E94E403C80106
:100F20000E94E4030E94A5016093B5017093B6018D
:100F30008093B7019093B801E7CE0E94A50120915C
:100F4000AF013091B0014091B1015091B201621BEB
:100F5000730B840B950B693E73408105910508F472
:100F6000D3CE81E0E816F10459F460E875E280E040
:100F700090E00E94EC031092B4011092B301C4CE31
:100F8000E2E0EE16F104B9F760E072EC81E090E087
:100F9000F0CFE3ECF1E01382128288EE93E0A0E060
:100FA000B0E084839583A683B7838EE091E091833C
:100FB000808385EC90E09587848784EC90E0978728
:100FC000868780EC90E0918B808B81EC90E0938B16
:100FD000828B82EC90E0958B848B86EC90E0978BF3
:100FE000868B118E128E138E148E0895BB274A3075
:100FF00031F4992322F4BDE2909581959F4F0C9492
:101000003308BB272A3051F4992342F4BDE290956E
:101010008095709561957F4F8F4F9F4F0C9411086D
:10102000BB27FA01A62F6217710581059105330BC5
:1010300030FB66F0AA27660F771F881F991FAA1F2B
:10104000A21710F0A21B63953850A9F7A05DAA3330
:1010500008F0A95DA19336F7B111B1931082CA01CE
:101060000C944C08BB27FB015527AA27880F991F12
:10107000AA1FA41710F0A41B83955051B9F7A05DC7
:10108000AA3308F0A95DA193009779F7B111B19344
:101090001192CB010C944C08DC01FC01672F71917B
:1010A0007723E1F7329704C07C916D93708362914E
:1010B000AE17BF07C8F30895F999FECF92BD81BD61
:1010C000F89A992780B50895262FF999FECF1FBA6F
:1010D00092BD81BD20BD0FB6F894FA9AF99A0FBE61
:1010E000019608952F923F924F925F926F927F9256
:1010F0008F929F92AF92BF92CF92DF92EF92FF9228
:101100000F931F93CF93DF93CDB7DEB7CA1BDB0BD3
:101110000FB6F894DEBF0FBECDBF09942A88398878
:1011200048885F846E847D848C849B84AA84B9847F
:10113000C884DF80EE80FD800C811B81AA81B9818B
:10114000CE0FD11D0FB6F894DEBF0FBECDBFED019F
:101150000895A1E21A2EAA1BBB1BFD010DC0AA1FF8
:10116000BB1FEE1FFF1FA217B307E407F50720F010
:10117000A21BB30BE40BF50B661F771F881F991F8B
:101180001A9469F760957095809590959B01AC01D4
:10119000BD01CF010895EE0FFF1F0590F491E02DE2
:1011A00009940F931F93CF93DF938230910510F42E
:1011B00082E090E0E0916202F091630230E020E092
:1011C000B0E0A0E0309799F42115310509F44AC048
:1011D000281B390B24303105D8F58A819B81611594
:1011E000710589F1FB0193838283FE0111C0408167
:1011F00051810281138148175907E0F048175907B8
:1012000099F4109761F012960C93129713961C9311
:101210003296CF01DF91CF911F910F9108950093E6
:10122000620210936302F4CF2115310551F0421789
:10123000530738F0A901DB019A01BD01DF01F80174
:10124000C1CFEF01F9CF9093630280936202CDCFBB
:10125000FE01E20FF31F81939193225031093983EC
:101260002883D7CF2091600230916102232B41F473
:1012700020910601309107013093610220936002B2
:1012800020910401309105012115310541F42DB75C
:101290003EB74091080150910901241B350BE091A4
:1012A0006002F0916102E217F307A0F42E1B3F0BDE
:1012B0002817390778F0AC014E5F5F4F24173507C8
:1012C00048F04E0F5F1F509361024093600281937C
:1012D00091939FCFF0E0E0E09CCFCF93DF93009716
:1012E000E9F0FC01329713821282A0916202B09160
:1012F0006302ED0130E020E01097A1F420813181FC
:10130000820F931F209160023091610228173907E4
:1013100009F061C0F0936102E0936002DF91CF9128
:101320000895EA01CE17DF07E8F54A815B819E0147
:1013300041155105B1F7E901FB83EA8349915991C0
:10134000C40FD51FEC17FD0761F4808191810296CF
:10135000840F951FE90199838883828193819B8300
:101360008A83F0E0E0E012968D919C9113970097AC
:10137000B9F52D913C911197CD010296820F931FE3
:1013800020916002309161022817390739F63097B1
:1013900051F51092630210926202B0936102A09321
:1013A0006002BCCFD383C28340815181840F951FDB
:1013B000C817D90761F44E5F5F4F88819981480F44
:1013C000591F518340838A819B8193838283211596
:1013D000310509F0B0CFF0936302E09362029ECF33
:1013E000FD01DC01C0CF13821282D7CFB0E0A0E0B4
:1013F000ECEFF9E00C9474088C01009751F4CB01E8
:101400000E94D1088C01C801CDB7DEB7E0E10C9491
:101410009008FC01E60FF71F9C0122503109E217EA
:10142000F30708F49DC0D901CD91DC911197C6173F
:10143000D70798F0C530D10530F3CE010497861751
:10144000970708F3C61BD70B2297C193D1936D93CF
:101450007C93CF010E946D09D6CF5B01AC1ABD0A07
:101460004C018C0E9D1EA0916202B0916302512C22
:10147000412CF12CE12C109731F580916002909174
:1014800061028815990509F05CC04616570608F0F8
:1014900058C08091040190910501009741F48DB7E7
:1014A0009EB74091080150910901841B950BE817E4
:1014B000F90708F055C0F0936102E0936002F9016A
:1014C00071836083A0CF8D919C91119712966C903F
:1014D000129713967C901397A815B90559F56C01CE
:1014E00042E0C40ED11CCA14DB0420F1AC014A193D
:1014F0005B09DA011296159780F06282738251833C
:101500004083D9016D937C93E114F10471F0D7010C
:101510001396FC93EE93129776CF22968C0F9D1F15
:10152000F90191838083F301EFCFF0936302E0939D
:10153000620269CF4816590608F42C017D01D301D7
:101540009ACFCB010E94D1087C01009749F0AE01EF
:10155000B8010E94B30AC8010E946D09870153CFE8
:1015600010E000E050CFFB01DC0102C001900D92C1
:1015700041505040D8F70895FB01DC0101900D92D5
:0A1580000020E1F70895F894FFCF72
:10158A008025000000006402800000000000510273
:10159A00B101DE019E020F02ED0101020D0A0044B3
:1015AA00617420426175643A20004261742064616A
:1015BA00752C20426175643A200054686F6E67206A
:1015CA0042616F0031206C616E3A2039363030202A
:1015DA006270730032206C616E3A203131353230DC
:1015EA0030206270730054686F61742063617520E3
:1015FA0068696E682E2E2E004261756420686965DE
:10160A006E20746169206C613A20004E68616E3AFE
:10161A002000206C616E0044616E6720686F6174FF
:0E162A0020646F6E672C20626175643A2000A8
:00000001FF
